{
  "contractName": "NamedRobot",
  "abi": [
    {
      "constant": true,
      "inputs": [],
      "name": "getName",
      "outputs": [
        {
          "name": "",
          "type": "bytes32"
        }
      ],
      "payable": false,
      "stateMutability": "view",
      "type": "function"
    },
    {
      "constant": false,
      "inputs": [
        {
          "name": "newName",
          "type": "bytes32"
        }
      ],
      "name": "setName",
      "outputs": [],
      "payable": false,
      "stateMutability": "nonpayable",
      "type": "function"
    }
  ],
  "bytecode": "0x60606040527f48616c2046696e6e657900000000000000000000000000000000000000000000600090600019169055341561003957600080fd5b60e3806100476000396000f3006060604052600436106049576000357c0100000000000000000000000000000000000000000000000000000000900463ffffffff16806317d7de7c14604e5780635ac801fe14607c575b600080fd5b3415605857600080fd5b605e60a0565b60405180826000191660001916815260200191505060405180910390f35b3415608657600080fd5b609e60048080356000191690602001909190505060a9565b005b60008054905090565b8060008160001916905550505600a165627a7a7230582037fad7d5a8e94e79e23671525368444b94599a8ddf10271a89dd622b4003c6ab0029",
  "source": "pragma solidity ^0.4.17;\ncontract NamedRobot {\n\n\tbytes32 private name = \"Hal Finney\"; \n\t\n\tfunction getName() public view returns(bytes32) {\n\t\treturn name;\n\t}\n\n\tfunction setName(bytes32 newName) public  {\n\t\tname = newName;\n\t}\n}",
  "sourcePath": "/Users/mike/Desktop/namedRobot/BitNamedRobot/contracts/NamedRobot.sol",
  "compiler": {
    "name": "solc",
    "version": "0.4.21+commit.dfe3193c.Emscripten.clang"
  },
  "schemaVersion": "2.0.0",
  "updatedAt": "2018-04-23T19:56:42.516Z"
}